{
  "contractName": "BuyLarioToken",
  "abi": [
    {
      "inputs": [],
      "stateMutability": "nonpayable",
      "type": "constructor"
    },
    {
      "inputs": [],
      "name": "startPresale",
      "outputs": [
        {
          "internalType": "bool",
          "name": "",
          "type": "bool"
        }
      ],
      "stateMutability": "view",
      "type": "function"
    },
    {
      "inputs": [],
      "name": "endPresale",
      "outputs": [
        {
          "internalType": "bool",
          "name": "",
          "type": "bool"
        }
      ],
      "stateMutability": "view",
      "type": "function"
    }
  ],
  "bytecode": "0x608060405260008060146101000a81548160ff02191690831515021790555034801561002a57600080fd5b50336000806101000a81548173ffffffffffffffffffffffffffffffffffffffff021916908373ffffffffffffffffffffffffffffffffffffffff16021790555061010e8061007a6000396000f3fe6080604052348015600f57600080fd5b506004361060325760003560e01c806304c98b2b146037578063a43be57b146051575b600080fd5b603d606b565b6040516048919060bf565b60405180910390f35b60576089565b6040516062919060bf565b60405180910390f35b600060011515600060149054906101000a900460ff16151514905090565b6000801515600060149054906101000a900460ff16151514905090565b60008115159050919050565b60b98160a6565b82525050565b600060208201905060d2600083018460b2565b9291505056fea2646970667358221220fed071d9e0811a8298c3967a28e8072423bf11b8ecc95f73def301f542122a7064736f6c634300080a0033",
  "immutableReferences": {},
  "source": "// SPDX-License-Identifier: MIT\r\n\r\npragma solidity ^0.8.0;\r\n\r\n/**\r\n * @title SafeMath\r\n */\r\nlibrary SafeMath {\r\n\r\n    /**\r\n    * Multiplies two numbers, throws on overflow.\r\n    */\r\n    function mul(uint256 a, uint256 b) internal pure returns (uint256 c) {\r\n        if (a == 0) {\r\n            return 0;\r\n        }\r\n        c = a * b;\r\n        assert(c / a == b);\r\n        return c;\r\n    }\r\n\r\n    /**\r\n    * Integer division of two numbers, truncating the quotient.\r\n    */\r\n    function div(uint256 a, uint256 b) internal pure returns (uint256) {\r\n        // assert(b > 0); // Solidity automatically throws when dividing by 0\r\n        // uint256 c = a / b;\r\n        // assert(a == b * c + a % b); // There is no case in which this doesn't hold\r\n        return a / b;\r\n    }\r\n\r\n    /**\r\n    * Subtracts two numbers, throws on overflow (i.e. if subtrahend is greater than minuend).\r\n    */\r\n    function sub(uint256 a, uint256 b) internal pure returns (uint256) {\r\n        assert(b <= a);\r\n        return a - b;\r\n    }\r\n\r\n    /**\r\n    * Adds two numbers, throws on overflow.\r\n    */\r\n    function add(uint256 a, uint256 b) internal pure returns (uint256 c) {\r\n        c = a + b;\r\n        assert(c >= a);\r\n        return c;\r\n    }\r\n}\r\ncontract BuyLarioToken {\r\n  address payable owner;\r\n  using SafeMath for uint256;\r\n  bool presale = false;\r\n\r\n  constructor() {\r\n    owner = payable(msg.sender);\r\n  }\r\n\r\n  modifier onlyOwner {\r\n    require(msg.sender == owner);\r\n    _;\r\n  }\r\n\r\n  modifier presaleOn {\r\n    require(presale == true);\r\n    _;\r\n  }\r\n\r\n  function startPresale() public view returns(bool) {\r\n    return presale == true;\r\n  }\r\n\r\n  function endPresale() public view returns(bool) {\r\n    return presale == false;\r\n  }\r\n\r\n}",
  "sourcePath": "C:\\Users\\USER\\Desktop\\projects\\LarioContract\\contracts\\BuyLarioToken.sol",
  "compiler": {
    "name": "solc",
    "version": "0.8.10+commit.fc410830.Emscripten.clang"
  },
  "schemaVersion": "3.4.3",
  "updatedAt": "2022-03-20T17:04:31.294Z",
  "devdoc": {
    "kind": "dev",
    "methods": {},
    "version": 1
  },
  "userdoc": {
    "kind": "user",
    "methods": {},
    "version": 1
  }
}