{
  "contractName": "LarioToken",
  "abi": [
    {
      "inputs": [],
      "stateMutability": "nonpayable",
      "type": "constructor"
    },
    {
      "anonymous": false,
      "inputs": [
        {
          "indexed": true,
          "internalType": "address",
          "name": "_owner",
          "type": "address"
        },
        {
          "indexed": true,
          "internalType": "address",
          "name": "_spender",
          "type": "address"
        },
        {
          "indexed": false,
          "internalType": "uint256",
          "name": "_value",
          "type": "uint256"
        }
      ],
      "name": "Approval",
      "type": "event"
    },
    {
      "anonymous": false,
      "inputs": [
        {
          "indexed": true,
          "internalType": "address",
          "name": "burner",
          "type": "address"
        },
        {
          "indexed": false,
          "internalType": "uint256",
          "name": "value",
          "type": "uint256"
        }
      ],
      "name": "Burn",
      "type": "event"
    },
    {
      "anonymous": false,
      "inputs": [
        {
          "indexed": true,
          "internalType": "address",
          "name": "_from",
          "type": "address"
        },
        {
          "indexed": true,
          "internalType": "address",
          "name": "_to",
          "type": "address"
        },
        {
          "indexed": false,
          "internalType": "uint256",
          "name": "_value",
          "type": "uint256"
        }
      ],
      "name": "Transfer",
      "type": "event"
    },
    {
      "inputs": [],
      "name": "decimals",
      "outputs": [
        {
          "internalType": "uint256",
          "name": "",
          "type": "uint256"
        }
      ],
      "stateMutability": "view",
      "type": "function"
    },
    {
      "inputs": [],
      "name": "name",
      "outputs": [
        {
          "internalType": "string",
          "name": "",
          "type": "string"
        }
      ],
      "stateMutability": "view",
      "type": "function"
    },
    {
      "inputs": [],
      "name": "symbol",
      "outputs": [
        {
          "internalType": "string",
          "name": "",
          "type": "string"
        }
      ],
      "stateMutability": "view",
      "type": "function"
    },
    {
      "inputs": [],
      "name": "totalDistributed",
      "outputs": [
        {
          "internalType": "uint256",
          "name": "",
          "type": "uint256"
        }
      ],
      "stateMutability": "view",
      "type": "function"
    },
    {
      "inputs": [],
      "name": "totalSupply",
      "outputs": [
        {
          "internalType": "uint256",
          "name": "",
          "type": "uint256"
        }
      ],
      "stateMutability": "view",
      "type": "function"
    },
    {
      "inputs": [
        {
          "internalType": "address payable",
          "name": "newOwner",
          "type": "address"
        }
      ],
      "name": "transferOwnership",
      "outputs": [],
      "stateMutability": "nonpayable",
      "type": "function"
    },
    {
      "inputs": [
        {
          "internalType": "address",
          "name": "_owner",
          "type": "address"
        }
      ],
      "name": "balanceOf",
      "outputs": [
        {
          "internalType": "uint256",
          "name": "",
          "type": "uint256"
        }
      ],
      "stateMutability": "view",
      "type": "function"
    },
    {
      "inputs": [
        {
          "internalType": "address",
          "name": "_to",
          "type": "address"
        },
        {
          "internalType": "uint256",
          "name": "_amount",
          "type": "uint256"
        }
      ],
      "name": "transfer",
      "outputs": [
        {
          "internalType": "bool",
          "name": "success",
          "type": "bool"
        }
      ],
      "stateMutability": "nonpayable",
      "type": "function"
    },
    {
      "inputs": [
        {
          "internalType": "address",
          "name": "_from",
          "type": "address"
        },
        {
          "internalType": "address",
          "name": "_to",
          "type": "address"
        },
        {
          "internalType": "uint256",
          "name": "_amount",
          "type": "uint256"
        }
      ],
      "name": "transferFrom",
      "outputs": [
        {
          "internalType": "bool",
          "name": "success",
          "type": "bool"
        }
      ],
      "stateMutability": "nonpayable",
      "type": "function"
    },
    {
      "inputs": [
        {
          "internalType": "address",
          "name": "_spender",
          "type": "address"
        },
        {
          "internalType": "uint256",
          "name": "_value",
          "type": "uint256"
        }
      ],
      "name": "approve",
      "outputs": [
        {
          "internalType": "bool",
          "name": "success",
          "type": "bool"
        }
      ],
      "stateMutability": "nonpayable",
      "type": "function"
    },
    {
      "inputs": [
        {
          "internalType": "address",
          "name": "_owner",
          "type": "address"
        },
        {
          "internalType": "address",
          "name": "_spender",
          "type": "address"
        }
      ],
      "name": "allowance",
      "outputs": [
        {
          "internalType": "uint256",
          "name": "",
          "type": "uint256"
        }
      ],
      "stateMutability": "view",
      "type": "function"
    },
    {
      "inputs": [
        {
          "internalType": "uint256",
          "name": "_value",
          "type": "uint256"
        }
      ],
      "name": "burn",
      "outputs": [],
      "stateMutability": "nonpayable",
      "type": "function"
    },
    {
      "inputs": [],
      "name": "withdraw",
      "outputs": [],
      "stateMutability": "nonpayable",
      "type": "function"
    },
    {
      "inputs": [
        {
          "internalType": "address",
          "name": "_tokenContract",
          "type": "address"
        }
      ],
      "name": "withdrawAltcoinTokens",
      "outputs": [
        {
          "internalType": "bool",
          "name": "",
          "type": "bool"
        }
      ],
      "stateMutability": "nonpayable",
      "type": "function"
    }
  ],
  "bytecode": "0x6080604052670de0b6b3a764000060045560006005553480156200002257600080fd5b50336000806101000a81548173ffffffffffffffffffffffffffffffffffffffff021916908373ffffffffffffffffffffffffffffffffffffffff16021790555060006200009c6064620000886028600454620000d860201b620010ec1790919060201c565b6200012460201b6200112f1790919060201c565b9050620000d060008054906101000a900473ffffffffffffffffffffffffffffffffffffffff16826200013c60201b60201c565b505062000455565b600080831415620000ed57600090506200011e565b8183620000fb9190620002d3565b90508183826200010c919062000363565b146200011d576200011c6200039b565b5b5b92915050565b6000818362000134919062000363565b905092915050565b60006200015a826005546200026e60201b620011451790919060201c565b600581905550620001b982600160008673ffffffffffffffffffffffffffffffffffffffff1673ffffffffffffffffffffffffffffffffffffffff168152602001908152602001600020546200026e60201b620011451790919060201c565b600160008573ffffffffffffffffffffffffffffffffffffffff1673ffffffffffffffffffffffffffffffffffffffff168152602001908152602001600020819055508273ffffffffffffffffffffffffffffffffffffffff16600073ffffffffffffffffffffffffffffffffffffffff167fddf252ad1be2c89b69c2b068fc378daa952ba7f163c4a11628f55a4df523b3ef846040516200025c9190620003db565b60405180910390a36001905092915050565b600081836200027e9190620003f8565b9050828110156200029457620002936200039b565b5b92915050565b6000819050919050565b7f4e487b7100000000000000000000000000000000000000000000000000000000600052601160045260246000fd5b6000620002e0826200029a565b9150620002ed836200029a565b9250817fffffffffffffffffffffffffffffffffffffffffffffffffffffffffffffffff0483118215151615620003295762000328620002a4565b5b828202905092915050565b7f4e487b7100000000000000000000000000000000000000000000000000000000600052601260045260246000fd5b600062000370826200029a565b91506200037d836200029a565b92508262000390576200038f62000334565b5b828204905092915050565b7f4e487b7100000000000000000000000000000000000000000000000000000000600052600160045260246000fd5b620003d5816200029a565b82525050565b6000602082019050620003f26000830184620003ca565b92915050565b600062000405826200029a565b915062000412836200029a565b9250827fffffffffffffffffffffffffffffffffffffffffffffffffffffffffffffffff038211156200044a5762000449620002a4565b5b828201905092915050565b61180480620004656000396000f3fe608060405234801561001057600080fd5b50600436106100ea5760003560e01c806342966c681161008c578063a9059cbb11610066578063a9059cbb1461024d578063dd62ed3e1461027d578063efca2eed146102ad578063f2fde38b146102cb576100ea565b806342966c68146101e357806370a08231146101ff57806395d89b411461022f576100ea565b80632195845f116100c85780632195845f1461015b57806323b872dd1461018b578063313ce567146101bb5780633ccfd60b146101d9576100ea565b806306fdde03146100ef578063095ea7b31461010d57806318160ddd1461013d575b600080fd5b6100f76102e7565b604051610104919061122c565b60405180910390f35b610127600480360381019061012291906112e7565b610320565b6040516101349190611342565b60405180910390f35b6101456104ae565b604051610152919061136c565b60405180910390f35b61017560048036038101906101709190611387565b6104b4565b6040516101829190611342565b60405180910390f35b6101a560048036038101906101a091906113b4565b61063b565b6040516101b29190611342565b60405180910390f35b6101c3610a19565b6040516101d0919061136c565b60405180910390f35b6101e1610a1e565b005b6101fd60048036038101906101f89190611407565b610b02565b005b61021960048036038101906102149190611387565b610cc8565b604051610226919061136c565b60405180910390f35b610237610d11565b604051610244919061122c565b60405180910390f35b610267600480360381019061026291906112e7565b610d4a565b6040516102749190611342565b60405180910390f35b61029760048036038101906102929190611434565b610f8f565b6040516102a4919061136c565b60405180910390f35b6102b5611016565b6040516102c2919061136c565b60405180910390f35b6102e560048036038101906102e091906114b2565b61101c565b005b6040518060400160405280600a81526020017f4c6172696f546f6b656e0000000000000000000000000000000000000000000081525081565b60008082141580156103af57506000600260003373ffffffffffffffffffffffffffffffffffffffff1673ffffffffffffffffffffffffffffffffffffffff16815260200190815260200160002060008573ffffffffffffffffffffffffffffffffffffffff1673ffffffffffffffffffffffffffffffffffffffff1681526020019081526020016000205414155b156103bd57600090506104a8565b81600260003373ffffffffffffffffffffffffffffffffffffffff1673ffffffffffffffffffffffffffffffffffffffff16815260200190815260200160002060008573ffffffffffffffffffffffffffffffffffffffff1673ffffffffffffffffffffffffffffffffffffffff168152602001908152602001600020819055508273ffffffffffffffffffffffffffffffffffffffff163373ffffffffffffffffffffffffffffffffffffffff167f8c5be1e5ebec7d5bd14f71427d1e84f3dd0314c0f7b2291e5b200ac8c7c3b9258460405161049b919061136c565b60405180910390a3600190505b92915050565b60045481565b60008060009054906101000a900473ffffffffffffffffffffffffffffffffffffffff1673ffffffffffffffffffffffffffffffffffffffff163373ffffffffffffffffffffffffffffffffffffffff161461050f57600080fd5b600082905060008173ffffffffffffffffffffffffffffffffffffffff166370a08231306040518263ffffffff1660e01b815260040161054f91906114ee565b6020604051808303816000875af115801561056e573d6000803e3d6000fd5b505050506040513d601f19601f82011682018060405250810190610592919061151e565b90508173ffffffffffffffffffffffffffffffffffffffff1663a9059cbb60008054906101000a900473ffffffffffffffffffffffffffffffffffffffff16836040518363ffffffff1660e01b81526004016105ef9291906115aa565b6020604051808303816000875af115801561060e573d6000803e3d6000fd5b505050506040513d601f19601f8201168201806040525081019061063291906115ff565b92505050919050565b6000606060048161064c919061165b565b600036905010156106605761065f6116b1565b5b600073ffffffffffffffffffffffffffffffffffffffff168473ffffffffffffffffffffffffffffffffffffffff16141561069a57600080fd5b600160008673ffffffffffffffffffffffffffffffffffffffff1673ffffffffffffffffffffffffffffffffffffffff168152602001908152602001600020548311156106e657600080fd5b600260008673ffffffffffffffffffffffffffffffffffffffff1673ffffffffffffffffffffffffffffffffffffffff16815260200190815260200160002060003373ffffffffffffffffffffffffffffffffffffffff1673ffffffffffffffffffffffffffffffffffffffff1681526020019081526020016000205483111561076f57600080fd5b6107c183600160008873ffffffffffffffffffffffffffffffffffffffff1673ffffffffffffffffffffffffffffffffffffffff1681526020019081526020016000205461116c90919063ffffffff16565b600160008773ffffffffffffffffffffffffffffffffffffffff1673ffffffffffffffffffffffffffffffffffffffff1681526020019081526020016000208190555061089383600260008873ffffffffffffffffffffffffffffffffffffffff1673ffffffffffffffffffffffffffffffffffffffff16815260200190815260200160002060003373ffffffffffffffffffffffffffffffffffffffff1673ffffffffffffffffffffffffffffffffffffffff1681526020019081526020016000205461116c90919063ffffffff16565b600260008773ffffffffffffffffffffffffffffffffffffffff1673ffffffffffffffffffffffffffffffffffffffff16815260200190815260200160002060003373ffffffffffffffffffffffffffffffffffffffff1673ffffffffffffffffffffffffffffffffffffffff1681526020019081526020016000208190555061096583600160008773ffffffffffffffffffffffffffffffffffffffff1673ffffffffffffffffffffffffffffffffffffffff1681526020019081526020016000205461114590919063ffffffff16565b600160008673ffffffffffffffffffffffffffffffffffffffff1673ffffffffffffffffffffffffffffffffffffffff168152602001908152602001600020819055508373ffffffffffffffffffffffffffffffffffffffff168573ffffffffffffffffffffffffffffffffffffffff167fddf252ad1be2c89b69c2b068fc378daa952ba7f163c4a11628f55a4df523b3ef85604051610a05919061136c565b60405180910390a360019150509392505050565b600881565b60008054906101000a900473ffffffffffffffffffffffffffffffffffffffff1673ffffffffffffffffffffffffffffffffffffffff163373ffffffffffffffffffffffffffffffffffffffff1614610a7657600080fd5b600030905060008173ffffffffffffffffffffffffffffffffffffffff1631905060008054906101000a900473ffffffffffffffffffffffffffffffffffffffff1673ffffffffffffffffffffffffffffffffffffffff166108fc829081150290604051600060405180830381858888f19350505050158015610afd573d6000803e3d6000fd5b505050565b60008054906101000a900473ffffffffffffffffffffffffffffffffffffffff1673ffffffffffffffffffffffffffffffffffffffff163373ffffffffffffffffffffffffffffffffffffffff1614610b5a57600080fd5b600160003373ffffffffffffffffffffffffffffffffffffffff1673ffffffffffffffffffffffffffffffffffffffff16815260200190815260200160002054811115610ba657600080fd5b6000339050610bfd82600160008473ffffffffffffffffffffffffffffffffffffffff1673ffffffffffffffffffffffffffffffffffffffff1681526020019081526020016000205461116c90919063ffffffff16565b600160008373ffffffffffffffffffffffffffffffffffffffff1673ffffffffffffffffffffffffffffffffffffffff16815260200190815260200160002081905550610c558260045461116c90919063ffffffff16565b600481905550610c708260055461116c90919063ffffffff16565b6005819055508073ffffffffffffffffffffffffffffffffffffffff167fcc16f5dbb4873280815c1ee09dbd06736cffcc184412cf7a71a0fdb75d397ca583604051610cbc919061136c565b60405180910390a25050565b6000600160008373ffffffffffffffffffffffffffffffffffffffff1673ffffffffffffffffffffffffffffffffffffffff168152602001908152602001600020549050919050565b6040518060400160405280600381526020017f4c544e000000000000000000000000000000000000000000000000000000000081525081565b60006040600481610d5b919061165b565b60003690501015610d6f57610d6e6116b1565b5b600073ffffffffffffffffffffffffffffffffffffffff168473ffffffffffffffffffffffffffffffffffffffff161415610da957600080fd5b600160003373ffffffffffffffffffffffffffffffffffffffff1673ffffffffffffffffffffffffffffffffffffffff16815260200190815260200160002054831115610df557600080fd5b610e4783600160003373ffffffffffffffffffffffffffffffffffffffff1673ffffffffffffffffffffffffffffffffffffffff1681526020019081526020016000205461116c90919063ffffffff16565b600160003373ffffffffffffffffffffffffffffffffffffffff1673ffffffffffffffffffffffffffffffffffffffff16815260200190815260200160002081905550610edc83600160008773ffffffffffffffffffffffffffffffffffffffff1673ffffffffffffffffffffffffffffffffffffffff1681526020019081526020016000205461114590919063ffffffff16565b600160008673ffffffffffffffffffffffffffffffffffffffff1673ffffffffffffffffffffffffffffffffffffffff168152602001908152602001600020819055508373ffffffffffffffffffffffffffffffffffffffff163373ffffffffffffffffffffffffffffffffffffffff167fddf252ad1be2c89b69c2b068fc378daa952ba7f163c4a11628f55a4df523b3ef85604051610f7c919061136c565b60405180910390a3600191505092915050565b6000600260008473ffffffffffffffffffffffffffffffffffffffff1673ffffffffffffffffffffffffffffffffffffffff16815260200190815260200160002060008373ffffffffffffffffffffffffffffffffffffffff1673ffffffffffffffffffffffffffffffffffffffff16815260200190815260200160002054905092915050565b60055481565b60008054906101000a900473ffffffffffffffffffffffffffffffffffffffff1673ffffffffffffffffffffffffffffffffffffffff163373ffffffffffffffffffffffffffffffffffffffff161461107457600080fd5b600073ffffffffffffffffffffffffffffffffffffffff168173ffffffffffffffffffffffffffffffffffffffff16146110e957806000806101000a81548173ffffffffffffffffffffffffffffffffffffffff021916908373ffffffffffffffffffffffffffffffffffffffff1602179055505b50565b6000808314156110ff5760009050611129565b818361110b91906116e0565b905081838261111a9190611769565b14611128576111276116b1565b5b5b92915050565b6000818361113d9190611769565b905092915050565b60008183611153919061165b565b905082811015611166576111656116b1565b5b92915050565b60008282111561117f5761117e6116b1565b5b818361118b919061179a565b905092915050565b600081519050919050565b600082825260208201905092915050565b60005b838110156111cd5780820151818401526020810190506111b2565b838111156111dc576000848401525b50505050565b6000601f19601f8301169050919050565b60006111fe82611193565b611208818561119e565b93506112188185602086016111af565b611221816111e2565b840191505092915050565b6000602082019050818103600083015261124681846111f3565b905092915050565b600080fd5b600073ffffffffffffffffffffffffffffffffffffffff82169050919050565b600061127e82611253565b9050919050565b61128e81611273565b811461129957600080fd5b50565b6000813590506112ab81611285565b92915050565b6000819050919050565b6112c4816112b1565b81146112cf57600080fd5b50565b6000813590506112e1816112bb565b92915050565b600080604083850312156112fe576112fd61124e565b5b600061130c8582860161129c565b925050602061131d858286016112d2565b9150509250929050565b60008115159050919050565b61133c81611327565b82525050565b60006020820190506113576000830184611333565b92915050565b611366816112b1565b82525050565b6000602082019050611381600083018461135d565b92915050565b60006020828403121561139d5761139c61124e565b5b60006113ab8482850161129c565b91505092915050565b6000806000606084860312156113cd576113cc61124e565b5b60006113db8682870161129c565b93505060206113ec8682870161129c565b92505060406113fd868287016112d2565b9150509250925092565b60006020828403121561141d5761141c61124e565b5b600061142b848285016112d2565b91505092915050565b6000806040838503121561144b5761144a61124e565b5b60006114598582860161129c565b925050602061146a8582860161129c565b9150509250929050565b600061147f82611253565b9050919050565b61148f81611474565b811461149a57600080fd5b50565b6000813590506114ac81611486565b92915050565b6000602082840312156114c8576114c761124e565b5b60006114d68482850161149d565b91505092915050565b6114e881611273565b82525050565b600060208201905061150360008301846114df565b92915050565b600081519050611518816112bb565b92915050565b6000602082840312156115345761153361124e565b5b600061154284828501611509565b91505092915050565b6000819050919050565b600061157061156b61156684611253565b61154b565b611253565b9050919050565b600061158282611555565b9050919050565b600061159482611577565b9050919050565b6115a481611589565b82525050565b60006040820190506115bf600083018561159b565b6115cc602083018461135d565b9392505050565b6115dc81611327565b81146115e757600080fd5b50565b6000815190506115f9816115d3565b92915050565b6000602082840312156116155761161461124e565b5b6000611623848285016115ea565b91505092915050565b7f4e487b7100000000000000000000000000000000000000000000000000000000600052601160045260246000fd5b6000611666826112b1565b9150611671836112b1565b9250827fffffffffffffffffffffffffffffffffffffffffffffffffffffffffffffffff038211156116a6576116a561162c565b5b828201905092915050565b7f4e487b7100000000000000000000000000000000000000000000000000000000600052600160045260246000fd5b60006116eb826112b1565b91506116f6836112b1565b9250817fffffffffffffffffffffffffffffffffffffffffffffffffffffffffffffffff048311821515161561172f5761172e61162c565b5b828202905092915050565b7f4e487b7100000000000000000000000000000000000000000000000000000000600052601260045260246000fd5b6000611774826112b1565b915061177f836112b1565b92508261178f5761178e61173a565b5b828204905092915050565b60006117a5826112b1565b91506117b0836112b1565b9250828210156117c3576117c261162c565b5b82820390509291505056fea2646970667358221220e03b43a66f4328ddd11ce8e79ce4f3feeceeba79ba73f3222dee05e7cd0ba91564736f6c634300080a0033",
  "immutableReferences": {},
  "source": "// SPDX-License-Identifier: MIT\r\n\r\npragma solidity ^0.8.0;\r\n\r\n/**\r\n * @title SafeMath\r\n */\r\nlibrary SafeMath {\r\n\r\n    /**\r\n    * Multiplies two numbers, throws on overflow.\r\n    */\r\n    function mul(uint256 a, uint256 b) internal pure returns (uint256 c) {\r\n        if (a == 0) {\r\n            return 0;\r\n        }\r\n        c = a * b;\r\n        assert(c / a == b);\r\n        return c;\r\n    }\r\n\r\n    /**\r\n    * Integer division of two numbers, truncating the quotient.\r\n    */\r\n    function div(uint256 a, uint256 b) internal pure returns (uint256) {\r\n        // assert(b > 0); // Solidity automatically throws when dividing by 0\r\n        // uint256 c = a / b;\r\n        // assert(a == b * c + a % b); // There is no case in which this doesn't hold\r\n        return a / b;\r\n    }\r\n\r\n    /**\r\n    * Subtracts two numbers, throws on overflow (i.e. if subtrahend is greater than minuend).\r\n    */\r\n    function sub(uint256 a, uint256 b) internal pure returns (uint256) {\r\n        assert(b <= a);\r\n        return a - b;\r\n    }\r\n\r\n    /**\r\n    * Adds two numbers, throws on overflow.\r\n    */\r\n    function add(uint256 a, uint256 b) internal pure returns (uint256 c) {\r\n        c = a + b;\r\n        assert(c >= a);\r\n        return c;\r\n    }\r\n}\r\n\r\ninterface AltcoinToken {\r\n    function balanceOf(address _owner) external returns (uint256);\r\n    function transfer(address _to, uint256 _value) external returns (bool);\r\n}\r\n\r\n    contract LarioToken {\r\n    \r\n    using SafeMath for uint256;\r\n    address payable owner;\r\n\r\n    mapping (address => uint256) balances;\r\n    mapping (address => mapping (address => uint256)) allowed;\r\n    mapping (address => address) referrals;\r\n\r\n    string public constant name = \"LarioToken\";\r\n    string public constant symbol = \"LTN\";\r\n    uint public constant decimals = 8;\r\n    \r\n    uint256 public totalSupply = 1e18;\r\n    uint256 public totalDistributed = 0;        \r\n    \r\n    event Transfer(address indexed _from, address indexed _to, uint256 _value);\r\n    event Approval(address indexed _owner, address indexed _spender, uint256 _value);\r\n    \r\n    event Burn(address indexed burner, uint256 value);\r\n    \r\n    modifier onlyOwner() {\r\n        require(msg.sender == owner);\r\n        _;\r\n    }\r\n    \r\n    \r\n    constructor () {\r\n        owner = payable(msg.sender);\r\n        // 5% dev fund,\r\n        // 20% presale,\r\n        // 15% promotion, airdrop and contest\r\n        uint256 projectFund = totalSupply.mul(40).div(100);\r\n        distr(owner, projectFund);\r\n    }\r\n    \r\n    function transferOwnership(address payable newOwner) onlyOwner public {\r\n        if (newOwner != address(0)) {\r\n            owner = newOwner;\r\n        }\r\n    }\r\n    \r\n    function distr(address _to, uint256 _amount) private returns (bool) {\r\n        totalDistributed = totalDistributed.add(_amount);        \r\n        balances[_to] = balances[_to].add(_amount);\r\n        emit Transfer(address(0), _to, _amount);\r\n\r\n        return true;\r\n    }\r\n\r\n    function balanceOf(address _owner) view public returns (uint256) {\r\n        return balances[_owner];\r\n    }\r\n\r\n    // mitigates the BEP20 short address attack\r\n    modifier onlyPayloadSize(uint size) {\r\n        assert(msg.data.length >= size + 4);\r\n        _;\r\n    }\r\n    \r\n    function transfer(address _to, uint256 _amount) onlyPayloadSize(2 * 32) public returns (bool success) {\r\n        \r\n        require(_to != address(0));\r\n        require(_amount <= balances[msg.sender]);\r\n        \r\n        balances[msg.sender] = balances[msg.sender].sub(_amount);\r\n        balances[_to] = balances[_to].add(_amount);\r\n        emit Transfer(msg.sender, _to, _amount);\r\n        return true;\r\n    }\r\n    \r\n    function transferFrom(address _from, address _to, uint256 _amount) onlyPayloadSize(3 * 32) public returns (bool success) {\r\n\r\n        require(_to != address(0));\r\n        require(_amount <= balances[_from]);\r\n        require(_amount <= allowed[_from][msg.sender]);\r\n        \r\n        balances[_from] = balances[_from].sub(_amount);\r\n        allowed[_from][msg.sender] = allowed[_from][msg.sender].sub(_amount);\r\n        balances[_to] = balances[_to].add(_amount);\r\n        emit Transfer(_from, _to, _amount);\r\n        return true;\r\n    }\r\n    \r\n    function approve(address _spender, uint256 _value) public returns (bool success) {\r\n        // mitigates the BEP20 spend/approval race condition\r\n        if (_value != 0 && allowed[msg.sender][_spender] != 0) { return false; }\r\n        allowed[msg.sender][_spender] = _value;\r\n        emit Approval(msg.sender, _spender, _value);\r\n        return true;\r\n    }\r\n    \r\n    function allowance(address _owner, address _spender) view public returns (uint256) {\r\n        return allowed[_owner][_spender];\r\n    }\r\n    \r\n    function burn(uint256 _value) onlyOwner public {\r\n        require(_value <= balances[msg.sender]);\r\n        \r\n        address burner = msg.sender;\r\n        balances[burner] = balances[burner].sub(_value);\r\n        totalSupply = totalSupply.sub(_value);\r\n        totalDistributed = totalDistributed.sub(_value);\r\n        emit Burn(burner, _value);\r\n    }\r\n\r\n    function withdraw() onlyOwner public {\r\n        address myAddress = address(this);\r\n        uint256 etherBalance = myAddress.balance;\r\n        owner.transfer(etherBalance);\r\n    }\r\n    \r\n    function withdrawAltcoinTokens(address _tokenContract) onlyOwner public returns (bool) {\r\n        AltcoinToken token = AltcoinToken(_tokenContract);\r\n        uint256 amount = token.balanceOf(address(this));\r\n        return token.transfer(owner, amount);\r\n    }\r\n\r\n}\r\n",
  "sourcePath": "C:\\Users\\USER\\Desktop\\projects\\LarioContract\\contracts\\LarioToken.sol",
  "compiler": {
    "name": "solc",
    "version": "0.8.10+commit.fc410830.Emscripten.clang"
  },
  "schemaVersion": "3.4.3",
  "updatedAt": "2022-03-20T17:04:31.490Z",
  "devdoc": {
    "kind": "dev",
    "methods": {},
    "version": 1
  },
  "userdoc": {
    "kind": "user",
    "methods": {},
    "version": 1
  }
}